:020000040800F2
:10000000D82F0020CD010008330F0008750E00081E
:10001000310F0008650500085D10000800000000B1
:10002000000000000000000000000000350F000884
:1000300067050008000000003B020008370F0008B9
:10004000E7010008E7010008E7010008E7010008F0
:10005000E7010008E7010008E7010008E7010008E0
:10006000E7010008E7010008E7010008E7010008D0
:10007000E7010008E7010008E7010008E7010008C0
:10008000E7010008E7010008E7010008E7010008B0
:10009000E7010008E7010008E7010008E7010008A0
:1000A000E7010008E7010008E7010008E701000890
:1000B000E7010008E7010008E7010008E701000880
:1000C000E7010008E7010008E7010008E701000870
:1000D000E7010008E7010008E7010008E701000860
:1000E000E7010008E7010008E7010008E701000850
:1000F000E7010008E7010008E7010008E701000840
:10010000E7010008E7010008E7010008E70100082F
:10011000E7010008E7010008E7010008E70100081F
:10012000E7010008E7010008E7010008E70100080F
:1001300000F002F800F03AF80AA090E8000C8244BF
:100140008344AAF10107DA4501D100F02FF8AFF29C
:10015000090EBAE80F0013F0010F18BFFB1A43F0A5
:1001600001031847081B0000281B0000103A24BF99
:1001700078C878C1FAD8520724BF30C830C144BF0C
:1001800004680C607047000000230024002500264E
:10019000103A28BF78C1FBD8520728BF30C148BFEA
:1001A0000B6070471FB51FBD10B510BD00F0A4F95E
:1001B0001146FFF7F7FF00F0DBFF00F0C2F903B4D0
:1001C000FFF7F2FF03BC00F0C7F9000009488047C1
:1001D00009480047FEE7FEE7FEE7FEE7FEE7FEE729
:1001E000FEE7FEE7FEE7FEE704480549054A064B41
:1001F00070470000A30F000831010008D829002033
:10020000D82F0020D82B0020D82B0020EFF310800F
:1002100072B6704780F310887047274A1368012B25
:1002200004D04FF001031360244A1060244A116087
:1002300024484FF0805101607047EFF3108272B68E
:100240001D48016891B14FF0000101601B48016831
:1002500029B1EFF3098121E9F00F00680160184925
:1002600009680968B1E8F00F81F3098882F3108802
:100270004EF0040E70471249086010494FF000001C
:1002800008600D494FF0010008600F480F49D0F891
:10029000002041EA020101600A484FF080510160EC
:1002A0000B480068006880F3088861B662B6BFF347
:1002B0004F8FBFF36F8F0000C8000020C0000020E8
:1002C000C400002004ED00E020ED00E00000FFFF8E
:1002D00008ED00E010B5431C02E010F8011B71B1FD
:1002E0008107FAD14FF0013202C88C1A8C4314EA0C
:1002F000C211F9D0C01A0A0603D0C01E10BDC01A20
:1003000010BD0A0401D0801E10BD0902FCD0401EA1
:1003100010BD032A40F2308010F0030C00F015806D
:1003200011F8013BBCF1020F624498BF11F801CBF8
:1003300000F8013B38BF11F8013BA2F1040298BF5D
:1003400000F801CB38BF00F8013B11F0030300F0C7
:100350007A80083AC0F0088051F8043B083A51F816
:1003600004CBA0E80810F5E7121D5CBF51F8043B70
:1003700040F8043BAFF30080D20724BF11F8013BE3
:1003800011F801CB48BF11F8012B24BF00F8013B45
:1003900000F801CB48BF00F8012B70474FF0000276
:1003A00000B5134694469646203922BFA0E80C506B
:1003B000A0E80C50B1F12001BFF4F7AF090728BF46
:1003C000A0E80C5048BF0CC05DF804EB890028BFC2
:1003D00040F8042B08BF704748BF20F8022B11F0EB
:1003E000804F18BF00F8012B704710B5044610F07D
:1003F000030F08BF11F0030F40F015804FF0013ECE
:10040000121FC0F20E8051F8043BA3EB0E0C2CEA35
:10041000030C1CEACE1C08BF40F8043BF0D0A1F14D
:10042000040102F10402521E08DB11F8013B002B0B
:1004300000F8013BF7D1114600F037F8204610BD17
:1004400070477047704710B5203AC0F00B80B1E894
:100450001850203AA0E81850B1E81850A0E81850F9
:10046000BFF4F5AF5FEA027C24BFB1E81850A0E802
:10047000185044BF18C918C0BDE810405FEA827C1C
:1004800024BF51F8043B40F8043B08BF7047D20733
:1004900028BF31F8023B48BF11F8012B28BF20F8D4
:1004A000023B48BF00F8012B70474FF000020429BF
:1004B000C0F0128010F0030C3FF472AFCCF1040CCA
:1004C000BCF1020F18BF00F8012BA8BF20F8022BC7
:1004D000A1EB0C01FFF764BF5FEAC17C24BF00F809
:1004E000012B00F8012B48BF00F8012B70470000DA
:1004F00000487047782900207546FFF7F9FFAE469F
:1005000005006946534620F00700854618B020B51F
:10051000FFF76AFEBDE820404FF000064FF00007ED
:100520004FF000084FF0000B21F00701AC46ACE89B
:10053000C009ACE8C009ACE8C009ACE8C0098D4608
:10054000704710B50446AFF300802046BDE8104068
:10055000FFF735BE7047000001491820ABBEFEE72B
:1005600026000200FEE7704772B6FEE72DE9F84F5D
:10057000DFF8C8910024A9F1040B23460F2709F1E5
:10058000040AABF1040ED1E00125A54006EA0502FC
:10059000AA4276D1DFF8A8C14E68A6EB0C086645E2
:1005A0002BD00DDC032E34D005DC36B3012E19D050
:1005B000022E2FD11BE0112E16D0122E2AD119E0B7
:1005C000B8F5881F19D006DCB8F5803F15D0B8F50E
:1005D000801F1FD111E0B8F5001F0ED0B8F5041F21
:1005E00018D10AE0CB6815E0CB681B1D12E0CB6880
:1005F00008330FE0CB680C330CE08B682BB1012B78
:100600004FF0080303D0456104E0042302E00561D4
:1006100000E00023FF2A01D8064601E000F10406AD
:100620004FEA840501D9A5F12005D6F8008007FA24
:1006300005FC28EA0C0803FA05F548EA0508C6F89F
:1006400000804D68ED0070D53E4DAE6946F0010664
:10065000AE61AD6924F0030605F0010500953A4D41
:1006600006EB050CDCF80850A607360F07FA06F86B
:1006700025EA0805DFF8D480404503D14FF0000893
:1006800025E052E0DFF8C880404502D14FF0010874
:100690001DE0DFF8C080404502D14FF0020816E0AF
:1006A000DFF8B480404502D14FF003080FE0DFF8D7
:1006B000AC80404502D14FF0040808E0DFF8A0808C
:1006C000404502D14FF0050801E04FF0060808FA56
:1006D00006F848EA0508CCF808804D68D9F80060AB
:1006E000ED024D4601D5164300E096432E604D685D
:1006F000DAF80060AD02554601D5164300E0964396
:100700002E604D68DBF80060AD035D4601D51643F1
:1007100000E096432E604D68DEF80060ED037546FC
:1007200001D5164300E096432E60641C0A68164605
:10073000E2407FF429AFBDE8F88F000008040140D3
:1007400000001110001002400000014000080140AC
:10075000000C01400010014000140140001801404D
:10076000001C0140C26821EA02030A4043EA024138
:10077000016170470AB1016170470904FBE700009D
:10078000014880687047000000000020024881682E
:10079000027811448160704700000020074810B5BE
:1007A000016841F010010160032000F067F80F209C
:1007B00000F006F800F024F8002010BD00200240F0
:1007C00070B50D4D04464FF47A712878B1FBF0F006
:1007D0000A490968B1FBF0F000F0CEFA48B9102CD4
:1007E00007D200222146501E00F028F800206C603D
:1007F00070BD012070BD0000000000200C00002032
:100800000C4808B5816941F001018161816901F0FD
:1008100001010091C16941F08051C161C06900F0DE
:10082000805000900448416821F0E06141F000717F
:10083000416008BD0010024000000140F0B40E4BC2
:100840001B680C46C3F30223C3F10705042D00D92E
:100850000425191D072901D2002300E0DB1E012613
:1008600006FA05F1491E214099409E40761E164029
:100870003143F0BC00F0F3BB0CED00E0064900F0A2
:10088000070208684FF6FF03184040EA0220034AB7
:1008900010430860704700000CED00E00000FA050E
:1008A0002DE9F0470F46050061D0434E306800F057
:1008B0000700B84209D2306820F0070038433060A2
:1008C000306800F00700B84251D128683B4C8107DE
:1008D00012D5400703D5606840F4E0606060287876
:1008E000000703D5606840F4605060606068A968E4
:1008F00020F0F000084360602878C00728D06868BE
:10090000012810D02168022810D0890700292EDA8A
:10091000616821F0030101436160FFF731FF804608
:1009200041F288390DE021688903EFE78901EDE79D
:10093000FFF726FFA0EB0801494502D90320BDE8D7
:10094000F0876068696800F00C00B0EB810FEFD1B0
:10095000306800F00700B8420BD9306820F007007B
:1009600038433060306800F00700B84201D0012001
:10097000E5E72878400705D56068E96820F4E0607D
:10098000084360602878000706D56068296920F46C
:10099000605040EAC100606000F038F86168084AC1
:1009A000C1F30311515CC84006490860064800685D
:1009B000FFF706FF0020C2E70020024000100240BF
:1009C000521C00080C0000200400002004480549C7
:1009D00000684968044AC1F30221515CC84070476D
:1009E0000C00002000100240621C00080448054969
:1009F00000684968044AC1F3C221515CC84070478D
:100A00000C00002000100240621C00080E4A5168D1
:100A10000E4801F00C03042B11D0082B0FD10C4809
:100A2000C1F38343C903C05C0AD55168084AC1F3C6
:100A30004041921E515C054A5043B0FBF1F07047B3
:100A400004494843704700000010024000127A0039
:100A5000421C000800093D002DE9F84F040070D049
:100A60002078C04DC00749D06868C0F381000128D4
:100A700007D06868C0F38100022809D16868C00304
:100A800006D52868800339D560680028E7D035E0AE
:100A90006068B0F5803F0BD010B1B0F5A02F11D039
:100AA000286820F480302860286820F4802002E044
:100AB000286840F480302860606890B1FFF760FEDD
:100AC00006460AE0286840F480202860F0E700BF6E
:100AD000FFF756FE801B642873D828688003F7D57B
:100AE0000CE0FFF74DFE064605E000BFFFF748FEAD
:100AF000801B6428F0D828688003F7D420789A4EA9
:100B000080074FF001094FF0000839D5686810F0F0
:100B10000C0F07D06868C0F38100022809D168680B
:100B2000C00306D42868800714D52069012808D19D
:100B300010E02069B0B1C6F80090FFF721FE07462B
:100B400005E00AE1FFF71CFEC01B0228C4D8286894
:100B50008007F7D52868616920F0F80040EAC100F5
:100B600028600DE0C6F80080FFF70AFE074604E0A3
:100B7000FFF706FEC01B022823D828688007F7D499
:100B8000207800072CD57948A169D9B1C0F8009028
:100B9000FFF7F6FD074604E0FFF7F2FDC01B022851
:100BA0000FD8686A8007F7D571484FF4FA5100688A
:100BB000B0FBF1F0009000BF0098411E0091FAD206
:100BC0000EE080E0C0F80080FFF7DAFD074604E0A1
:100BD000FFF7D6FDC01B022875D8686A8007F7D4D6
:100BE0002078400760D5E8690027C00008D4E8698C
:100BF00040F08050E861E869012700F080500090E3
:100C00005C480168C90513D40168834641F48071CA
:100C10000160FFF7B5FD824606E000BFFFF7B0FDBB
:100C2000A0EB0A0064284ED8DBF80000C005F5D51B
:100C3000E06801280AD008B1052813D0286A20F0FE
:100C400001002862286A20F0040002E0286A40F0CF
:100C500001002862E06841F2883B98B1FFF790FDFF
:100C600082460BE0286A40F004002862EEE700BFED
:100C7000FFF786FDA0EB0A0159455AD8286A80077C
:100C8000F6D50CE0FFF77CFD824605E0FFF778FD26
:100C9000A0EB0A0159454CD8286A8007F6D41FB149
:100CA000E86920F08050E861E06988B36968C1F3C1
:100CB0008101022944D00228C6F8608004D0FFF7E1
:100CC0005FFD044638E034E0FFF75AFD074604E0D4
:100CD000FFF756FDC01B02282BD828688001F7D4E7
:100CE000206AB0F5803F05D16868A16820F4003023
:100CF00008436860D4E908010843696821F4741165
:100D000008436860C6F86090FFF73AFD044606E0C5
:100D100025E000BFFFF734FD001B022809D8286832
:100D20008001F7D51BE000BFFFF72AFD001B02285A
:100D300002D90320BDE8F88F28688001F4D40EE0C2
:100D40000128F7D06868226A00F48031914204D10A
:100D5000616A00F47010884201D00120EAE70020A7
:100D6000E8E70000001002400000424280044242D6
:100D70000C0000200070004010B5401EB0F1807FD4
:100D800001D3012010BD4FF0E02460610F216017F6
:100D900000F065F90020A06107202061002010BD4F
:100DA00070B5040004D094F84100002510B106E0AD
:100DB000012070BD84F84050204600F023F8242024
:100DC00084F841002068C16821F40051C1602046C8
:100DD00000F0E8F82068016921F490410161206881
:100DE000416921F02A0141612068C16841F4005144
:100DF000C1606564202084F8410084F84200656386
:100E0000002070BD30B585B0002400940194029498
:100E1000039400681449884224D11448C16941F4FC
:100E20008021C161C16901F480210491816941F08F
:100E30000801816180690E4D00F0080004904FF4B4
:100E400080600090022001900320039069462846AC
:100E5000FFF78CFBE814CDE90004694628460294AC
:100E6000FFF784FB05B030BD004800400010024091
:100E7000000C0140FEE7000070B586B000241C485D
:100E80000094019402940394816941F010018161FE
:100E9000816901F010010491816941F020018161B3
:100EA000816901F020010491816941F008018161AB
:100EB000816901F008010491816941F004018161B7
:100EC00080690C4E00F0040042F2040504900022F8
:100ED00029463046FFF74EFC01200095CDE901047C
:100EE0000220039069463046FFF740FB06B070BD14
:100EF00000100240001001400C4810B50A49016082
:100F00004FF4E1314160002181600C22C160C0E9F1
:100F100004128161C161FFF743FF002803D0BDE8DF
:100F20001040FFF721BB10BD00480040CC0000205E
:100F3000FEE7FEE7704710B500F088FDBDE8104001
:100F4000FFF724BC30B58FB028216846FFF726FA9A
:100F500014210AA8FFF722FA01210804CDE90010A4
:100F60000024029402250491CDE907504FF4E010CB
:100F700009906846FFF770FD08B172B6FEE70F20D2
:100F8000CDE90A054FF48060CDE90C4002210AA8A2
:100F90000E94FFF785FC002801D072B6FEE70FB073
:100FA00030BD704770B5044600680169E26821F4FD
:100FB0004051114301612169A068084361690843F8
:100FC0002168CA6841F20C639A430243CA602068F0
:100FD0004169A26921F44071114341611E492068B1
:100FE000884202D1FFF702FD01E0FFF7EFFC00EBC2
:100FF000C00101EB0012606864218000B2FBF0F3D5
:10100000B3FBF1F36FF018067343B2FBF0F5B2FBDC
:10101000F0F605EB8305322303EB0515B5FBF1F57F
:10102000B6FBF1F605F0F00505EB0615B2FBF0F6A0
:10103000B2FBF0F0B0FBF1F06FF01802504306EB9A
:10104000800003EB0010B0FBF1F0216800F00F000E
:101050002844886070BD000000380140FEE70907A1
:10106000090E002804DB00F1E02080F8001470472E
:1010700000F00F0000F1E02080F8141D7047000020
:101080000A494FF4205301F5205001F5205280E821
:101090000E000022C26002618261C2610262C1E987
:1010A00000234161BFF34F8F7047000014010020FF
:1010B00070B50446406A04F12405A84202D02846CF
:1010C00000F0DFF914F8486F0648294600EBC60027
:1010D00000F0C0F90120A070034841788E4200D290
:1010E000467070BD382900208800002010B50446E5
:1010F000243000F0C6F914F84A0F20F0010004F87B
:1011000002092078034C6178884202D100F00CF982
:10111000607010BD88000020074AA2F1200110680D
:10112000904204D14FF0FF30C1E906007047D0E98A
:101130000B20C1E906207047A80000200B4C216855
:10114000A142FCD0D1E90002A1F124054260D1E91D
:101150000002106049600960284600F049FA686B97
:1011600000F0F2F8284600F0EFF8E8E780000020F1
:101170001CB5FFF713FBFFF7E5FEFFF77DFEFFF75A
:10118000BBFE00F057F901200090430201900022BD
:10119000044905A000F07BFB00F020FC00F046FBBA
:1011A000FEE70000B1110008737461727400000062
:1011B0001CB501250026CDE900656F023B4632468D
:1011C0000C490DA000F063FBCDE9006504463B46E9
:1011D00000220A490AA000F05AFB0546204600F00A
:1011E000FDFB284600F0FAFB0A20002100F072FB0C
:1011F000FAE7000005120008743100001D12000813
:1012000074320000044C04212046FFF7ABFA64203E
:10121000002100F05FFBF6E700100140064D4FF49F
:1012200000544FF4967621462846FFF79BFA304645
:10123000002100F04FFBF6E70010014010B50B4C09
:10124000A068243000F01DF9A0682C3000F019F9D6
:10125000A1680748243100F0FDF8A168102081F84A
:101260004A00BDE8104000F097BA00008800002056
:1012700080000020DFF8A09088B009F1080800BFC6
:10128000D8F800404FF0FF300246444506D000F049
:1012900045F8D4E90332181A62EB0102CDE90002E5
:1012A000182202A9D9F8040000F010FA58B1022857
:1012B000E6D100F033F8D8F8004007460E464FF06C
:1012C000000A25681BE002A800F034FCD8E700BF44
:1012D000D4E90301243C381A76EB0100D0D3616CC9
:1012E00009B1A06C884794F8400001280AD004F1A5
:1012F000240000F0CFF884F841A02C462D68444526
:10130000BED0E5E7D4E90E10C9197041C4E90C104C
:10131000204600F0EDFBF0E7B0000020014908692D
:1013200049697047880000200649002001EBC0038E
:1013300051F830209A4204D1401CC0B20828F5D39D
:10134000082070473829002070B51E4D0446686893
:1013500008B9FFF795FE002C33D02868083CA0425E
:101360002FD86868A0422CD96268082A29D3B2F520
:10137000205F26D868690021034601E00146006825
:1013800008B1A042FAD351B14B685E18A64203D10E
:1013900013440C464B6004E00C60206001E02360C5
:1013A0006C6140B161680B19834204D143681944F0
:1013B000616000682060E868801AE860E869401CA5
:1013C000E86170BD1429002070B5044622F00700C2
:1013D00000220A4DB0F1400040F82250521C102A61
:1013E000FAD301620021416281624FF0807200F104
:1013F0003005C263C16285E81A0070BDEFBEADDE84
:101400001CB501210720CDE900014B02002205494E
:1014100005A000F03CFA06490860BDE81C4000F059
:10142000DDBA00003D11000869646C650000000031
:101430007C00002010B500F0E7F9FFF7E1FFBDE800
:10144000104000F0CFBB0268516002680A60016082
:10145000486070474268116042684A6041600860B5
:1014600070474268116042684A6041600860704796
:10147000D0E900124A60D0E90012116040600060BB
:101480007047D0E900124A60D0E900121160406054
:1014900000607047D0E900124A60D0E90012116084
:1014A00040600060704700002DE9F041244C054683
:1014B000606808B9FFF7E4FD25B105F10800B0F553
:1014C000205F02D90020BDE8F081ED1D002125F04C
:1014D00007020D460846083263690AE05E689642D4
:1014E00005D310B14768BE4201D218460D461946D1
:1014F0001B68002BF2D150B141688B1A082B0DD913
:1015000081184B6003680B602DB1296004E0206AEC
:10151000401C2062D6E76161426004E001680DB1C1
:10152000296000E06161E16842681144E160A269FC
:10153000521CA2612269914200D921610830C2E7A0
:101540001429002010B5CBB2002101E04354491CFE
:101550009142FBD310BD00002DE9F041060012D0EE
:101560000B4801EB410100EB810555F8044F08E001
:10157000A4F11C0007461722314600F077F928B184
:101580002468A542F4D10020BDE8F0813846FBE78D
:101590001000002070B515460C46060009D044B175
:1015A000FEF798FE182804D229463046FFF7D4FFEC
:1015B00008B1012070BD6576172231462046FEF73E
:1015C00014FF0020E0751C34084905EB45006460F9
:1015D00001EB8000246050F8081F0C6050F80419DB
:1015E000616044602060002070BD00001000002099
:1015F00080B1C2690AB9016A61B100F11C01036AD4
:101600005360D1E900231A600162C16100210170B9
:101610000846704701207047F8B5074616460C4645
:101620003C20FFF741FF05000ED004FB06F0FFF75A
:101630003BFFE862021E06D0234639462846009644
:1016400000F027F82846F8BD0020F8BD2DE9F0414C
:101650000446FEF7DBFD074604F1240607E000BF61
:10166000A0F12C05FFF704FF2846FFF721FD606A73
:10167000B042F5D13846FEF7CDFDE06A18B1FFF76C
:1016800063FE0020E0622046FFF7B2FF0020BDE8C5
:10169000F0812DE9F04104461D46069FC06A1646BA
:1016A0000B4680B1032221461846FFF773FFE6621E
:1016B000278665860020A086E08620872434646023
:1016C0002460BDE8F0810320FBE700002DE9FF4F17
:1016D00081B00446DDE90E574FF00009FEF796FD94
:1016E000009000F075F906464FF0010800F12C0A51
:1016F00004F1240B33E000BF55EA07001AD051462D
:101700005846FFF7A0FEE84370EA070017D0FFF73E
:1017100005FE40197941C6E9140186F84B80284638
:10172000394600F0D7F80098FEF774FD022005B0A6
:10173000BDE8F08F0098FEF76DFD0520F7E786F80D
:101740004B80304600F052F90098FEF763FD96F8A2
:101750004B0000B102208146FEF758FD0090208F1B
:101760000028C9D0A18E228EE06A01FB0201DDE9CA
:101770000202FEF7CEFDA08E618E401CB0FBF1F29E
:1017800001FB1200A086208F401E20870098FEF7E4
:1017900041FD4846CBE700002DE9F041184C606858
:1017A00000282BD1FEF732FD0646FFF7BDFD607025
:1017B000082806D0134951F83050A068243D8542CE
:1017C00004D13046BDE8F041FEF724BD90F84A1040
:1017D000022904D1FFF78AFCA068FFF769FCA7681B
:1017E0000220A56085F84A002846FFF77FFC05F136
:1017F0003C0107F13C00FEF710FDE2E7BDE8F08197
:101800008800002038290020064A002002EBC00191
:10181000401C496009600828F8DB0348406000600C
:101820007047000038290020A800002070B5FFF79D
:101830007BFD0C4D0C49687051F83000A0F1240478
:101840000220AC6084F84A002046FFF74FFCFEF708
:10185000DDFC0120287004F13C00BDE87040FEF77B
:101860000ABD0000880000203829002010B51AB9F0
:10187000002010BD401C491C521E04D0037813B137
:101880000C78A342F6D000780978401A10BD2DE9F3
:10189000FF478246DDE90C761D469046894660206A
:1018A000FFF702FE041E0DD02846FFF7FDFD60B1D4
:1018B00003968DE8A10043464A465146204600F073
:1018C0004BF8204604B0BDE8F0872046FFF73CFD0A
:1018D0000020F7E72DE9F0411E4F06460C46BD6893
:1018E000FEF794FC8046F04370EA04000ED038699D
:1018F0007969801961410446C5E914410E462846BC
:10190000FFF7F4FB134A203210680FE04FF0FF306E
:101910000146F0E7A0F12403D3E91413611A76EB32
:10192000030102D205F1240106E000689042F1D1E2
:10193000084805F124012030FFF78CFDFFF7ECFB90
:10194000082085F84A004046FEF764FCBDE8F041F7
:10195000FFF722BF880000202DE9F0471F46DDE990
:101960000A65DDE908A990460B4604002BD0014624
:1019700001221846FFF70EFEC4E91087C4E90DA93D
:1019800084F8486084F84960002084F84A0084F8AC
:101990004C5084F84D5004F12400A062606208307D
:1019A0002063E062D4E90D022321FFF7CBFDD4E9E7
:1019B0000D014218D4E91001044BFFF705FDE06367
:1019C0000020BDE8F0870320FBE700003D1200087F
:1019D00001488068704700008800002010B518B1E9
:1019E000FFF766FB002010BD032010BD70B504009A
:1019F0002AD0FEF70BFC064694F84A0004F12401B5
:101A0000C2074FF0040505D00846FFF73AFD84F8F9
:101A10004A5014E0020707D50846FFF732FD84F864
:101A20004A50FFF779FB0AE0800708D584F84A504E
:101A30003046FEF7EFFBBDE87040FFF7ADBE304625
:101A4000BDE87040FEF7E6BB70BD00002DE9F04137
:101A5000264D287800283FD028696969401C41F14B
:101A6000000128616961AE6896F84C00401E86F856
:101A70004C002B696869D5E90612591A904122D3A6
:101A800005F120073C680FE0D4E90B122B69686967
:101A9000243C591A90410CD304F12400FFF7F1FCC7
:101AA0002046FFF705FB4446BC42D4F80080EBD14A
:101AB00002E0206DC5E906023868B84203D14FF054
:101AC000FF30C5E90600FFF72FFC96F84C1029B14E
:101AD00096F84810814205D8BDE8F08196F84D008F
:101AE00086F84C00BDE8F041FFF756BE88000020A4
:101AF0002DE9F041044624300546FFF7CBFC0C4AA3
:101B00001068904211D12946094809E0A0F1240348
:101B1000D4E90C61D3E90C73F61B994104D2294630
:101B2000BDE8F041FFF79DBC00689042EED1EAE7C6
:101B3000B800002070B505464468007805281FD21B
:101B4000DFE800F003132A1F430094F84100012846
:101B500003D104F12400FFF79DFCD5E90401C4E999
:101B60000C01012084F841002AE094F8410001288A
:101B700006D104F12400FFF78DFC002084F8410019
:101B800070BD94F841000128FAD104F12400FFF758
:101B900081FCD5E9040111E0D5E90201C4E90E0197
:101BA00094F841000128EBD104F12400FFF772FC06
:101BB000FFF7B4FBD4E90E2380185941C4E90C01A6
:101BC0002046BDE87040FFF793BF94F8410001281C
:101BD00003D104F12400FFF75DFC2046BDE870400E
:101BE000FFF7B2BB1CB518220A210FA0FFF714FDA6
:101BF0000F4C606078B101210620CDE900014B0255
:101C000000220C490CA0FFF742FE206028B1BDE87D
:101C10001C40FFF7E3BE01201CBD6068FFF716FD06
:101C200000206060F7E700006F73746D71000000C2
:101C3000B0000020751200086F73746D0000000082
:101C4000010202030405060708090A0B0C0D0E0F1A
:101C5000101000000000000000000102030406074D
:101C60000809000000000102030400008C1C0008A9
:101C700000000020CC0000006C010008581D000886
:101C8000CC0000200C2F000088010008010000009B
:101C9000100000000000000000127A0000000000A8
:101CA000140000201400002001000000200000208B
:101CB00020000020020000002C0000202C0000204A
:101CC000030000003800002038000020040000005D
:101CD00044000020440000200500000050000020C7
:101CE00050000020060000005C0000205C00002086
:101CF00007000000680000206800002008000000C5
:101D0000740000207400002000000000800000200B
:101D1000800000200008000000000000000000001B
:101D2000000000000000000000000000FFFFFFFFB7
:101D3000FFFFFFFF000000000000000000000000A7
:101D400000000000B8000020B800002000000000E3
:081D500000000000000000008B
:0400000508000131BD
:00000001FF
