:020000040800F2
:1000000020190020E1000008030400080104000892
:1000100000000000000000000000000000000000E0
:1000200000000000000000000000000005040008BF
:10003000000000000000000029010008070400087B
:10004000F3000008F3000008F3000008F3000008C4
:10005000F3000008F3000008F3000008F3000008B4
:1000600000000000F3000008F3000008F30000089F
:10007000F3000008F3000008F3000008000000008F
:10008000F30000084105000800000000F30000082C
:10009000F3000008F3000008F3000008F300000874
:1000A000F3000008F3000008F3000008F300000864
:1000B000F300000800000000000000000000000045
:1000C000F300000800000000F30000080348854624
:1000D00000F07EF90048004769060008201900205A
:1000E0000448804704480047FEE7FEE7FEE7FEE7D6
:1000F000FEE7FEE709040008CD000008EFF31080DA
:1001000072B6704780F3108870472B4A1368012B32
:1001100004D040F201031360284A1060284A11609D
:100120002848294901607047EFF3108272B62248CF
:10013000016800291ED040F2000101601F480168DB
:1001400000290AD0EFF30981203900680160F0C16D
:1001500044464D4656465F46F0C11949096809684C
:10016000F0C9F0B4F0C9A046A946B246BB46F0BCFF
:1001700081F3098882F31088032040420047104928
:1001800008600E4940F2000008600B4940F201008F
:1001900008600E480E4902681143016009480A4987
:1001A00001600C480068006880F3088862B6BFF3FD
:1001B0004F8FBFF36F8F000018110020CC1000206C
:1001C000D010002004ED00E00000001020ED00E061
:1001D0000000FFFF08ED00E003460B439B0703D040
:1001E00009E008C9121F08C0042AFAD203E00B78FC
:1001F0000370401C491C521EF9D27047D2B201E074
:100200000270401C491EFBD270470022F6E710B571
:1002100013460A4604461946FFF7F0FF204610BD74
:1002200010B5044605E00B780370401C002B00D08D
:10023000491C521EF7D2204610BD421C0178401CBA
:100240000029FBD1801A7047024670B54A40D30F8F
:10025000DB0740002DD04A002AD0010E140E000208
:1002600012020919400A520A8418E501044654434F
:10027000000A120A2E045043A4194219200CC54347
:10028000AA18120C0125AD03521C521912047F3911
:10029000240400D0521C104301D44000491EC2B2B5
:1002A0000C06C0092018401C4008802A02D003E038
:1002B000002070BD40084000002900DA00201843EB
:1002C00070BD70B502464A40D50F40004A00ED07A8
:1002D00040085208002814D0002A12D0C40DD30DB3
:1002E00041020120C0055202490A520AE41A0918C3
:1002F00012187D34914201D3641C00E04900002CA7
:1003000001DA002070BD0023914201D3891A034312
:10031000400849000028F7D100290AD0914202D1B3
:100320000121C90705E0914201D2012101E001212B
:10033000C943E005C018401900F008F870BD10B5B9
:1003400000229623114600F009F810BD002904DAB6
:10035000401C490001D140084000704770B400249F
:10036000050C05D11024000402D1002921D011244C
:10037000050E01D100020834050F01D10001241D32
:10038000850F01D18000A41C002801DB4000641C03
:10039000002908D020252E1B0D46F540A14000D095
:1003A00001212943084301061B1B000ADB1D02D55E
:1003B000002070BC7047DB05181880180029F8DA97
:1003C000401C4900F5D170BC400840007047000057
:1003D0001CB5094800900948019005460126009C7B
:1003E00005E0E36807CC33430C3C98471034AC423B
:1003F000F7D3FFF76FFE0000701700089017000892
:10040000FEE7FEE7FEE77047F0B482B04648021F01
:10041000136801210B43136013689B07FCD5036825
:1004200080241C43046000250195019B7F2B05D887
:10043000019B5B1C0193019B802BF9D303689024E3
:100440001C4304600195019B7F2B05D8019B5B1C1D
:100450000193019B802BF9D303230093DC430668AF
:10046000264006601468314E264016600468304EFF
:100470002640066004682F4B1C400460846A0F26E7
:10048000B4438462C46A40F20316B443C4620C04E9
:10049000C66AA643C662CC07C66AA643C662046B98
:1004A0008C4304634560244EB41C176827431760CF
:1004B0004F04761E2C466C4113683B4201D1002C40
:1004C000F7D113683B4200D1FEE71C4B1D680224A4
:1004D00025430526B5431D60036803600368036078
:1004E000036803600368134D2B4003601D231B0446
:1004F00005681D4305600B0615681D4315601368EC
:100500009B01FCD50268009B9A430260026822436B
:1005100002600C2203681340082BFBD1C80600219F
:1005200002B0F0BC00F030B904100240FFFFF2FE50
:100530000C00FF08FFFFC277FEFF00000020024012
:1005400010B5774C0121204600F08BFA012808D124
:100550000121204600F082FA10BC01BC864601F061
:1005600043B810BDB0B5436A014624310246483253
:100570008B4205D0846A5C60846A23604162816238
:100580001378DC00074D2C19656885622960012508
:10059000957061604462044801788B4200D2037018
:1005A000B0BDC046D410002058000020C162704782
:1005B000F0B582B0019305680090C0680026374608
:1005C00003E0B61C7F1C102F0ED0019BFB40DB0705
:1005D000F7D01346B3400324B440A04318430B465E
:1005E000B340A5431D43ECE700990D60C86002B01D
:1005F000F0BDF0B581B0012902D14168194301E095
:100600004168994341600090816800240320264698
:1006100003E0A41C761C102E0AD01F46F740FF07EB
:10062000F7D01746A7400546A540A9433943F0E750
:100630000098816001B0F0BDB94D2E68AE42FCD08B
:1006400003CE4160083E71680860366076603446CB
:10065000243C204600F0F0FC306900F067FB2046A7
:1006600000F064FBE9E7C04686B000F0F3F8294EDD
:10067000B01C00F095F8284F012500243846294683
:10068000224642F20003FFF793FF384621462A46EE
:1006900042F20003FFF7ADFF304600F081F8092079
:1006A000C60602273046294622463B46FFF780FF12
:1006B000304621462A463B46FFF79BFF174800F08D
:1006C0006FF8174E304600F02DF902A90C7315484B
:1006D000049002950394304600F064F911202946F5
:1006E00000F028F83046294600F0B4F9304600F012
:1006F00053F900F0B9FB009501950BA00C49224677
:1007000040F2002300F050FE00F004FF00F0F8FD7E
:10071000FEE7C0461105000000080048040700007D
:10072000001000409F8C0000737461727400000020
:10073000E107000810B540B2002805D403220346A3
:1007400093430F4A9A1803E00C2202400B4BD21835
:100750008307DB0E8907090E9940FF249C4013682C
:10076000A3430B431360002807D41F21014001223B
:100770008A40400980000349425010BD14ED00E05A
:1007800000E400E000E100E0034A0A4002430348BD
:100790000260BFF34F8F704780FFFF1F08ED00E03E
:1007A0001F21014001228A4080090C49435813430C
:1007B000435070471F21014001228A4080090749A8
:1007C00043589343435070471F21014001228A4000
:1007D00080090249435813434350704700100240B8
:1007E00082B001260024009401960FA00F492246F2
:1007F00040F2002300F0D8FD0546009401960CA0BD
:100800000C49224640F2002300F0CEFD0646284661
:1008100000F080FE304600F07DFE0A252846214685
:1008200000F00CFEFAE7C04674310000950800089D
:1008300074320000B5080008001F414241418800A1
:1008400003490A6804239A43101808607047C04699
:1008500010E000E080B50420C043FFF7EDFF08483A
:100860000068FFF76CFD0749FFF72BFD064908609C
:1008700008680649FFF7E8FC0549086080BDC046E6
:10088000000000200024F44A7C00002000007A448C
:1008900078000020064C64250026204642F2000124
:1008A000FFF784FE2846314600F0C8FDF5E7C04654
:1008B000000800480920C4060225002620462946D3
:1008C000FFF774FE40F2F410314600F0B7FDF5E793
:1008D00090B4124801684A6A8B6A53608B6A1A6046
:1008E0000A4624324A628A620168CA6A0B6B536004
:1008F0000B6B1A600A462C32CA620A6308494A68BE
:1009000003681C46243414604C6059629A62006883
:100910004A211022425490BC00F05CBCC010002060
:100920005C00002010B5184C184988420ADD1849AF
:10093000884212DC3F4988421DD04149884218D183
:10094000641D18E03C4988420FD01249884211D0FA
:100950003E4988420DD1FD340DE03B49884206D026
:100960003849884205D1E41D05E0F63403E0A41DB2
:1009700001E010BDF9342046FFF726FF204610BCE9
:1009800002BC8E46FFF716BF0B030000FF2B014091
:10099000FF43014000100040016801220A43026049
:1009A0007047000010B50A888262224A904202D045
:1009B000214B98420BD103687024A34303604B88FA
:1009C00004681C4304608B8804681C4304608B68C3
:1009D000C3621A4B984208DC174B98420ED01B4B4F
:1009E00098420BD0904209D01FE0154A904205D0A2
:1009F000144A904202D0144A904216D1026840F242
:100A000000339A430260CA88036813430360104AA4
:100A10008218920A83059A18072A06D80123934060
:100A2000E122134201D0097B0163416901220A439B
:100A3000426110BD002C014000040040FF3F014016
:100A400000400140004801400044014000200040B7
:100A500000D4FEBFC2680A43C2607047C943016147
:100A60007047C2680A40531E9A4100690840411EFF
:100A700088411040704700008EB000200690C043AF
:100A80000390A54B1820049003E0284600F04EF98F
:100A9000334618681E46984206D0C568046900F0BF
:100AA0003FF92A1A8C4101E0039C22469B480068CA
:100AB0000092019408A9049A00F01CFB022844D07B
:100AC00000283346E5D108A800780428E1D8099D1C
:100AD000810001A251188F4600F008B800F08AB8D2
:100AE00000F09BB800F0CFB800F0F3B84120285CCC
:100AF000012808D1686AA96A4160A96A0860284685
:100B000024306862A86228464130696AAA6A4A604D
:100B1000AA6A11600D990C9A2A6369630123037014
:100B2000284624306862A86234463368B3423346AC
:100B300000D1DDE01B68B34200D1DFE0DC681F6953
:100B4000141B0C46BC41F5D2BCE000F0E9F807915B
:100B500033463468B4429CD0054605900AE003CF82
:100B60004160083F79680860069878773F607F6049
:100B70009C428ED027462468F8683969281A07985D
:100B8000884186D3396A11B1786A88473346387FFD
:100B90000128E4D103CF4160083F79680860796992
:100BA000B8694919F960079A504138613F607F6020
:100BB0001A689A4211D01A4612689A4213D0D36822
:100BC0001569CB1A0346AB413346F5D2506807602E
:100BD0003A6078605760059DCAE7586807603B60D7
:100BE00078605F60C4E7586807603B6078605F606A
:100BF000059DBDE74120285C012800D049E7284633
:100C00004130696AAA6A4A60AA6A1160069901704D
:100C1000284624306862A8623BE70B980A99A963CA
:100C2000E8634120285C012800D032E7686AA96A9D
:100C30004160A96A08602C4624346C62AC6200F002
:100C40006FF86A6AAB6A5360AB6A1A60AB6BEA6BA7
:100C50001818334628634A416A636C62AC62316893
:100C6000B14252D01946096899424ED0CB680F69FB
:100C7000C31A1346BB413346F5D248680460696223
:100C8000A8624C6005E74120285C012800D000E7FD
:100C9000686AA96A4160A96A08600D990C9A2A637A
:100CA0006963284624306862A8623368B3423346D9
:100CB0001ED01B68B34221D0DC681F69141B0C4690
:100CC000BC41F6D2596808606B62A962586033462D
:100CD000DFE64120285C012800D0D6E6686AA96AD0
:100CE0004160A96A0860284624306862A862CCE6A0
:100CF0005968086058606B62A962CAE63346716839
:100D0000086070606E62A962C3E6586804605C6047
:100D10006B62A862BDE6C04670000020A8100020EB
:100D20000148416800687047B8100020B0B5914A8A
:100D30001168C9B9904901230B70904B9049196013
:100D4000904C00232360904C2360904C2360904C87
:100D50002360904C2360904C216041F200040C19F8
:100D60001460204CE41D18C1D0B301460839834BF0
:100D70001B68994234D31268914231D2001F006837
:100D80000246083A174B9A422AD20024824A234646
:100D9000126812B18A421446F9D333B15C681D1946
:100DA0008D4209D019600A6003E07B4B1C680C601F
:100DB00019600B461AB90BE02118596042B1596805
:100DC0005C18944204D114681C6052685118596030
:100DD0006C490A68101A08606D480168491C016076
:100DE000B0BDC046F90F0000F0B5044607208243AD
:100DF000104640383F25ED430B4E56512D1DFCD17A
:100E000015461C3D00261746203F39602E606E6057
:100E1000AE60EE60111F01252D060D6011460839E8
:100E20000C600C3A1360F0BDEFBEADDE80B582B051
:100E3000012007210091019007A00949002240F2FA
:100E4000002300F0B1FA0749086002B080BC02BC80
:100E50008E4600F05FBBC04669646C650000000010
:100E600039060008A410002080B5002008490A189F
:100E70000A50526008304028F9D1064800604060AE
:100E8000FFF7D4FF80BC01BC864600F02DBCC046F5
:100E9000D4100020C4100020F0B501463548026887
:100EA000C2B9354A01231370344B354A1A60354BA9
:100EB00000241C60344B1C60344B1C60344B1C60A1
:100EC000344B1C6041F2000314605360324C2260CA
:100ED000D2180260002000294AD041F201028A1A89
:100EE00008322E4B9A4243D3C91D07208143083153
:100EF000294A156895B100242046234603E033466D
:100F00002046256865B126462C466D688D42F8D38B
:100F10000028F4D04768BD42F1D3F2E70023184619
:100F200060B14468651A092D0ED304684450441812
:100F3000656003B11A46146041600AE01548016813
:100F4000491C01600020F0BD01680BB1196000E090
:100F5000116041680B4A1368591811600B4A1368F5
:100F60005B1C1360084A1368994200D9116008306D
:100F7000F0BDC046841000208810002080100020A2
:100F8000800000208C10002090100020981000207D
:100F90009C100020A010002094100020FFEFFFFF05
:100FA00010B504462AB1CBB2204611461A46FFF7C7
:100FB00025F9204610BD0000F0B585B00646012099
:100FC00004909EB30C4689B315463046FFF735F9B9
:100FD00017282BD803940C2002956843154908184C
:100FE0000190051D17272C462468AC4209D02046E5
:100FF0001C3831463A4600F0BFF90028F4D1AC4223
:1010000014D103980299417617223146FFF708F967
:1010100003461C3300210491C175C3610362019C26
:10102000A1680B60221DC2610162A360049805B033
:10103000F0BDC04604000020012168B1C2690AB9B0
:10104000036A4BB101461C31036A5360036A1A609C
:10105000C16101620021017008467047F0B583B09C
:1010600017460D4602903C20FFF716FF0024C8B13A
:101070000646284601977843FFF70EFFF06288B1D5
:101080000746032202983146FFF796FF002030877B
:101090007063758601983086304624307062B06285
:1010A000F7623446204603B0F0BD70B504460646EC
:1010B0002436FFF723F80546606AB0420CD006C814
:1010C0004A60083842681160006040602C38FFF7C1
:1010D00049FA3068B042F2D12846FFF713F8E06AC7
:1010E00018B1FFF723FE0020E0622046FFF7A4FFBF
:1010F000002070BDF0B589B0144602910746FEF796
:10110000FDFF054600F000FA398F0394D1B10024A9
:10111000B88E398E4143F86A41180298039AFFF756
:101120005BF8388F401E3887788EB98E491CB1FB2A
:10113000F0F24243881AB8862846FEF7E3FF2046BD
:1011400009B0F0BD0F990E9B02464B3204920790F6
:101150002C300690089724370597019518460843C8
:1011600024D0059E32680798C262069C54603460A1
:1011700006631F461A460E460A40511C19D101212A
:10118000049C217000F0EEF92846FEF7BBFF24789E
:10119000FEF7B4FF05460898008F002831463B460D
:1011A000DCD0601E84416400089FB1E70524019DE6
:1011B000C2E70446FFF7B4FD4B220123A354C01934
:1011C0002065714161653846314600F037F90224E7
:1011D000019DB1E7F0B585B04848006808B105B099
:1011E000F0BD0025DD4EFEF789FF082431688E42F0
:1011F00004D108366D1C082DF8D100E0ECB2D84DB2
:101200002C70082C74D0E100D44B59580E46243E63
:10121000BF4A1768BE426BD0049008462430039042
:101220003A4648329078022841D101967D6A02956B
:10123000BD6A029E7560BD6A029E2E60FE25284032
:101240009070384624307862B8621278A2420BD18E
:101250000020C24AC24D1468A24204D10832401C88
:101260000828F8D108202870A9480068446A074671
:10127000243702464832BC4205D0856A6560856ADB
:101280002C604762876214780294E400B34D2D19F4
:101290006C6884622760012494706F604562B04D71
:1012A0002878029A8242019E01D210462A70984AFA
:1012B0001068166014C9546008394C682260022214
:1012C000039CA2700960496022782C78A2420AD15E
:1012D0002C4600251A68934204D108336D1C082D52
:1012E000F8D1082525703C301831FEF70EFF049820
:1012F00005B0F0BC02BC8E46FEF704BF14110020FE
:10130000B0B50022954908200B68994204D10831F4
:10131000521C082AF8D10246D3B2D900F1484458E9
:1013200021462439EB4D2960256861686960EC49E4
:101330000A70626815602246243202259570246086
:1013400064602422A25C9A420AD100220823056824
:10135000A84204D10830521C082AF8D11A460A7053
:10136000FEF7CCFED9480121017018342046B0BCEC
:1013700002BC8E46FEF703BF70B59AB1521E0DD067
:101380008B18841805784DB10E78B54206D1521EDF
:10139000491C401C002AF5D12046194609780078DE
:1013A000401A70BD002070BDF0B585B01D461646D0
:1013B000049103905820FFF76FFD0027C8B304463F
:1013C00002962846FFF768FD80B306462746483751
:1013D00001950B9D0A980090012203982146FFF782
:1013E000EBFD04982064029860647D713D710020DB
:1013F000B8700098787038702046243021462C311F
:101400006062A062E16221636663019AA2632321A4
:101410003046FFF7C5FD606BA16B4218206C616C14
:10142000054BFFF7E1FCE063274602E02046FFF7AB
:101430007DFC384605B0F0BDD1080008F0B587B096
:10144000019002910840401C0490A24806680027C1
:10145000FD433046483006902C46FEF74FFE05907F
:10146000049803952A460495294630B1984A516854
:1014700012680198121802984141736AB46A5C605C
:10148000B46A236006988378FE241C408470326519
:101490007165334624337362B362057890480478EB
:1014A000A54209D18F4D2C68A54204D108357F1C77
:1014B000082FF8D108270770884C25462D68A542CB
:1014C00006D0E86A2F6B101A0846B841F6D200E041
:1014D0002546049F039A686803607562B0626B607A
:1014E0002168A14201D0CA6A0F6B7B4802600821C3
:1014F000069A917047600598FEF704FE07B0F0BCAD
:1015000001BC8646FFF766BE724800687047C04659
:10151000C0100020B0B5F0B101464831436A024620
:101520002432934205D0846A5C60846A23604262FC
:1015300082620B78DC006B4D2C19656885622A602D
:1015400001258D706260446265490A7800209342EB
:1015500000D20B70B0BD0320B0BDC046D410002037
:101560005800002010B5A8B10446FEF7C7FD4A2177
:10157000625CD30721464A316BB9130717D492072F
:101580002CD504220A70FEF7BDFD10BC01BC8646B6
:10159000FFF720BE10BD626AA36A5360A36A1A6097
:1015A00004220A70214624316162A16216E0626A57
:1015B000A36A5360A36A1A6004220A702146243188
:1015C0006162A16245490A688A4202D0D16A126BFF
:1015D00002E00021C9430A463F4B06C310BC02BCCF
:1015E0008E46FEF78FBDC046F0B483B03748007812
:1015F000002868D0364B58681A680021521C1A60BF
:10160000484158603348006848300279521E0190C2
:1016100000920271304814C85D681E68B21AA54174
:1016200038D32E48066886422CD02D480078029088
:1016300003E02A488242164624D03268F46A356BA9
:10164000234B58681B681B1BA84119D33046243014
:101650007368536073681A60366076600478E300DC
:10166000204DEB185D682E600127877028C6083E64
:101670005E6002988442DCD2194804700294D8E774
:10168000154830C0154A1068904203D1C843124A29
:1016900010605060134B08221868834204D108334D
:1016A000491C0829F8D100E0CAB2019B0098010644
:1016B00003D01878824206D209B95879187103B05C
:1016C000F0BCFFF787BD03B0F0BC7047B01000203E
:1016D000B8100020C010002068000020C4100020B6
:1016E00058000020D4100020B0B582B011A00A210B
:1016F0001822FFF7B3FC114D2860C0B1012006216C
:10170000009101900EA010490024224640F20023CF
:10171000FFF74AFE0D49086028B102B0B0BC02BC18
:101720008E46FFF7F7BE2868FFF7BFFC2C6001204C
:1017300002B0B0BD6F73746D71000000A81000207E
:101740006F73746D00000000790A0008AC1000206F
:1017500002E008C8121F08C1002AFAD1704770477A
:10176000002001E001C1121F002AFBD170470000D8
:1017700090170008000000207800000050170008B3
:101780000818000878000020A8180000601700085A
:1017900000A24A0400000000080000200800002009
:1017A00001000000140000201400002002000000CE
:1017B0002000002020000020030000002C0000205A
:1017C0002C00002004000000380000203800002019
:1017D0000500000044000020440000200600000036
:1017E0005000002050000020080000005C00002095
:1017F0005C00002000000000FFFFFFFFFFFFFFFF75
:081800007000002070000020C0
:04000005080000CD22
:00000001FF
